{
  "contractName": "Election",
  "abi": [
    {
      "inputs": [],
      "payable": false,
      "stateMutability": "nonpayable",
      "type": "constructor"
    },
    {
      "constant": true,
      "inputs": [],
      "name": "candidate",
      "outputs": [
        {
          "internalType": "string",
          "name": "",
          "type": "string"
        }
      ],
      "payable": false,
      "stateMutability": "view",
      "type": "function"
    },
    {
      "constant": true,
      "inputs": [
        {
          "internalType": "uint256",
          "name": "",
          "type": "uint256"
        }
      ],
      "name": "candidates",
      "outputs": [
        {
          "internalType": "uint256",
          "name": "id",
          "type": "uint256"
        },
        {
          "internalType": "string",
          "name": "name",
          "type": "string"
        },
        {
          "internalType": "uint256",
          "name": "voteCount",
          "type": "uint256"
        }
      ],
      "payable": false,
      "stateMutability": "view",
      "type": "function"
    },
    {
      "constant": true,
      "inputs": [],
      "name": "candidatesCount",
      "outputs": [
        {
          "internalType": "uint256",
          "name": "",
          "type": "uint256"
        }
      ],
      "payable": false,
      "stateMutability": "view",
      "type": "function"
    }
  ],
  "bytecode": "0x608060405234801561001057600080fd5b506100556040518060400160405280600681526020017f4e616d652031000000000000000000000000000000000000000000000000000081525061009e60201b60201c565b6100996040518060400160405280600681526020017f4e616d652032000000000000000000000000000000000000000000000000000081525061009e60201b60201c565b6101be565b6001600081548092919060010191905055506040518060600160405280600154815260200182815260200160008152506000806001548152602001908152602001600020600082015181600001556020820151816001019080519060200190610108929190610119565b506040820151816002015590505050565b828054600181600116156101000203166002900490600052602060002090601f016020900481019282601f1061015a57805160ff1916838001178555610188565b82800160010185558215610188579182015b8281111561018757825182559160200191906001019061016c565b5b5090506101959190610199565b5090565b6101bb91905b808211156101b757600081600090555060010161019f565b5090565b90565b610337806101cd6000396000f3fe608060405234801561001057600080fd5b50600436106100415760003560e01c80632d35a8a2146100465780633477ee2e146100645780636c8381f814610119575b600080fd5b61004e61019c565b6040518082815260200191505060405180910390f35b6100906004803603602081101561007a57600080fd5b81019080803590602001909291905050506101a2565b6040518084815260200180602001838152602001828103825284818151815260200191508051906020019080838360005b838110156100dc5780820151818401526020810190506100c1565b50505050905090810190601f1680156101095780820380516001836020036101000a031916815260200191505b5094505050505060405180910390f35b610121610264565b6040518080602001828103825283818151815260200191508051906020019080838360005b83811015610161578082015181840152602081019050610146565b50505050905090810190601f16801561018e5780820380516001836020036101000a031916815260200191505b509250505060405180910390f35b60015481565b6000602052806000526040600020600091509050806000015490806001018054600181600116156101000203166002900480601f0160208091040260200160405190810160405280929190818152602001828054600181600116156101000203166002900480156102545780601f1061022957610100808354040283529160200191610254565b820191906000526020600020905b81548152906001019060200180831161023757829003601f168201915b5050505050908060020154905083565b60028054600181600116156101000203166002900480601f0160208091040260200160405190810160405280929190818152602001828054600181600116156101000203166002900480156102fa5780601f106102cf576101008083540402835291602001916102fa565b820191906000526020600020905b8154815290600101906020018083116102dd57829003601f168201915b50505050508156fea265627a7a72315820936f86356345be722579840f7af8ca262cf75c05b24cda610e2aa35041f6e63864736f6c63430005100032",
  "source": "pragma solidity ^0.5.16;\n\ncontract Election {\n\n  //Model a candidate/Store Candidates\n  //Fetch Candidates\n  //Store Candidates\n  //Store Candidates Count.\n\n  struct Candidate {\n    uint id;\n    string name;\n    uint voteCount;\n  }\n\n  //Note: This is a kind of enumeration of Candidates stored\n  //On the blockchain! We can't know its size, so we keep\n  //track with a state variable.\n  mapping(uint => Candidate) public candidates;\n  uint public candidatesCount;\n\n\n  string public candidate;\n\n  //Constructor\n  //Note: We can't use the Contract Name to signal constructor - deprecated.\n  constructor () public {\n    addCandidate(\"Name 1\");\n    addCandidate(\"Name 2\");\n  }\n\n\n  //Add Candidates Function:\n  function addCandidate (string memory _name) private {\n    candidatesCount ++;\n    candidates[candidatesCount] = Candidate(candidatesCount, _name, 0);\n\n  }\n\n}\n",
  "sourcePath": "/home/user/Documents/CodeProjects/DappU/ElectionDapp/contracts/Elections.sol",
  "compiler": {
    "name": "solc",
    "version": "0.5.16+commit.9c3226ce.Emscripten.clang"
  },
  "schemaVersion": "3.4.3",
  "updatedAt": "2021-12-10T15:36:02.054Z",
  "networkType": "ethereum",
  "devdoc": {
    "methods": {}
  },
  "userdoc": {
    "methods": {}
  }
}